{
  "contractName": "MedicalFolder",
  "abi": [
    {
      "anonymous": false,
      "inputs": [
        {
          "indexed": false,
          "internalType": "bytes32",
          "name": "medHash",
          "type": "bytes32"
        }
      ],
      "name": "MedFolderAdded",
      "type": "event"
    },
    {
      "constant": true,
      "inputs": [
        {
          "internalType": "address",
          "name": "",
          "type": "address"
        },
        {
          "internalType": "address",
          "name": "",
          "type": "address"
        }
      ],
      "name": "allowedAccess",
      "outputs": [
        {
          "internalType": "bool",
          "name": "",
          "type": "bool"
        }
      ],
      "payable": false,
      "stateMutability": "view",
      "type": "function"
    },
    {
      "constant": true,
      "inputs": [
        {
          "internalType": "address",
          "name": "",
          "type": "address"
        }
      ],
      "name": "ownerToMedFolder",
      "outputs": [
        {
          "internalType": "uint256",
          "name": "",
          "type": "uint256"
        }
      ],
      "payable": false,
      "stateMutability": "view",
      "type": "function"
    },
    {
      "constant": false,
      "inputs": [
        {
          "internalType": "string",
          "name": "_hash",
          "type": "string"
        }
      ],
      "name": "addMedFolder",
      "outputs": [],
      "payable": false,
      "stateMutability": "nonpayable",
      "type": "function"
    },
    {
      "constant": false,
      "inputs": [
        {
          "internalType": "address",
          "name": "_patient",
          "type": "address"
        },
        {
          "internalType": "string",
          "name": "_newHash",
          "type": "string"
        }
      ],
      "name": "modifyMedFolder",
      "outputs": [],
      "payable": false,
      "stateMutability": "nonpayable",
      "type": "function"
    },
    {
      "constant": false,
      "inputs": [
        {
          "internalType": "address",
          "name": "_doctor",
          "type": "address"
        }
      ],
      "name": "giveAccess",
      "outputs": [],
      "payable": false,
      "stateMutability": "nonpayable",
      "type": "function"
    },
    {
      "constant": false,
      "inputs": [
        {
          "internalType": "address",
          "name": "_doctor",
          "type": "address"
        }
      ],
      "name": "removeAccess",
      "outputs": [],
      "payable": false,
      "stateMutability": "nonpayable",
      "type": "function"
    },
    {
      "constant": true,
      "inputs": [
        {
          "internalType": "address",
          "name": "_patient",
          "type": "address"
        }
      ],
      "name": "getMedFolder",
      "outputs": [
        {
          "components": [
            {
              "internalType": "address",
              "name": "patient",
              "type": "address"
            },
            {
              "internalType": "bytes32",
              "name": "medHash",
              "type": "bytes32"
            },
            {
              "internalType": "uint256",
              "name": "modifDate",
              "type": "uint256"
            }
          ],
          "internalType": "struct MedicalFolder.MedFolder",
          "name": "",
          "type": "tuple"
        }
      ],
      "payable": false,
      "stateMutability": "view",
      "type": "function"
    }
  ],
  "bytecode": "0x608060405234801561001057600080fd5b50610f7e806100206000396000f3fe608060405234801561001057600080fd5b506004361061007d5760003560e01c80638823da6c1161005b5780638823da6c146100fe578063981c91d11461011a578063ba002f701461014a578063cf12e870146101665761007d565b8063029d6a931461008257806316414059146100b257806365af08ec146100e2575b600080fd5b61009c60048036036100979190810190610a67565b610182565b6040516100a99190610dd4565b60405180910390f35b6100cc60048036036100c79190810190610a90565b61035f565b6040516100d99190610d1c565b60405180910390f35b6100fc60048036036100f79190810190610acc565b61038e565b005b61011860048036036101139190810190610a67565b61061d565b005b610134600480360361012f9190810190610a67565b6106f5565b6040516101419190610def565b60405180910390f35b610164600480360361015f9190810190610b20565b61070d565b005b610180600480360361017b9190810190610a67565b61091c565b005b61018a6109c4565b8173ffffffffffffffffffffffffffffffffffffffff163373ffffffffffffffffffffffffffffffffffffffff16148061024a5750600160008373ffffffffffffffffffffffffffffffffffffffff1673ffffffffffffffffffffffffffffffffffffffff16815260200190815260200160002060003373ffffffffffffffffffffffffffffffffffffffff1673ffffffffffffffffffffffffffffffffffffffff16815260200190815260200160002060009054906101000a900460ff165b610289576040517f08c379a000000000000000000000000000000000000000000000000000000000815260040161028090610d94565b60405180910390fd5b6000600260008473ffffffffffffffffffffffffffffffffffffffff1673ffffffffffffffffffffffffffffffffffffffff16815260200190815260200160002054815481106102d557fe5b90600052602060002090600302016040518060600160405290816000820160009054906101000a900473ffffffffffffffffffffffffffffffffffffffff1673ffffffffffffffffffffffffffffffffffffffff1673ffffffffffffffffffffffffffffffffffffffff168152602001600182015481526020016002820154815250509050919050565b60016020528160005260406000206020528060005260406000206000915091509054906101000a900460ff1681565b81600160008273ffffffffffffffffffffffffffffffffffffffff1673ffffffffffffffffffffffffffffffffffffffff16815260200190815260200160002060003373ffffffffffffffffffffffffffffffffffffffff1673ffffffffffffffffffffffffffffffffffffffff16815260200190815260200160002060009054906101000a900460ff16610458576040517f08c379a000000000000000000000000000000000000000000000000000000000815260040161044f90610db4565b60405180910390fd5b60008260405160200161046b9190610d52565b604051602081830303815290604052805190602001209050600060405180606001604052808673ffffffffffffffffffffffffffffffffffffffff168152602001838152602001428152509080600181540180825580915050906001820390600052602060002090600302016000909192909190915060008201518160000160006101000a81548173ffffffffffffffffffffffffffffffffffffffff021916908373ffffffffffffffffffffffffffffffffffffffff16021790555060208201518160010155604082015181600201555050506000600160008054905003905080600260008773ffffffffffffffffffffffffffffffffffffffff1673ffffffffffffffffffffffffffffffffffffffff16815260200190815260200160002081905550600360008673ffffffffffffffffffffffffffffffffffffffff1673ffffffffffffffffffffffffffffffffffffffff168152602001908152602001600020600081548092919060010191905055507f6804b9f9e44b5af4ff29e86d98e921b89a446a9b4e01637047bf6cdcceaed7d58260405161060e9190610d37565b60405180910390a15050505050565b600160003373ffffffffffffffffffffffffffffffffffffffff1673ffffffffffffffffffffffffffffffffffffffff16815260200190815260200160002060008273ffffffffffffffffffffffffffffffffffffffff1673ffffffffffffffffffffffffffffffffffffffff16815260200190815260200160002060009054906101000a900460ff166106e6576040517f08c379a00000000000000000000000000000000000000000000000000000000081526004016106dd90610d74565b60405180910390fd5b6106f23382600061092b565b50565b60026020528060005260406000206000915090505481565b6000600360003373ffffffffffffffffffffffffffffffffffffffff1673ffffffffffffffffffffffffffffffffffffffff168152602001908152602001600020541461075957600080fd5b60008160405160200161076c9190610d52565b604051602081830303815290604052805190602001209050600060405180606001604052803373ffffffffffffffffffffffffffffffffffffffff168152602001838152602001428152509080600181540180825580915050906001820390600052602060002090600302016000909192909190915060008201518160000160006101000a81548173ffffffffffffffffffffffffffffffffffffffff021916908373ffffffffffffffffffffffffffffffffffffffff16021790555060208201518160010155604082015181600201555050506000600160008054905003905080600260003373ffffffffffffffffffffffffffffffffffffffff1673ffffffffffffffffffffffffffffffffffffffff16815260200190815260200160002081905550600360003373ffffffffffffffffffffffffffffffffffffffff1673ffffffffffffffffffffffffffffffffffffffff168152602001908152602001600020600081548092919060010191905055507f6804b9f9e44b5af4ff29e86d98e921b89a446a9b4e01637047bf6cdcceaed7d58260405161090f9190610d37565b60405180910390a1505050565b6109283382600161092b565b50565b80600160008573ffffffffffffffffffffffffffffffffffffffff1673ffffffffffffffffffffffffffffffffffffffff16815260200190815260200160002060008473ffffffffffffffffffffffffffffffffffffffff1673ffffffffffffffffffffffffffffffffffffffff16815260200190815260200160002060006101000a81548160ff021916908315150217905550505050565b6040518060600160405280600073ffffffffffffffffffffffffffffffffffffffff16815260200160008019168152602001600081525090565b600081359050610a0d81610f24565b92915050565b600082601f830112610a2457600080fd5b8135610a37610a3282610e37565b610e0a565b91508082526020830160208301858383011115610a5357600080fd5b610a5e838284610ed1565b50505092915050565b600060208284031215610a7957600080fd5b6000610a87848285016109fe565b91505092915050565b60008060408385031215610aa357600080fd5b6000610ab1858286016109fe565b9250506020610ac2858286016109fe565b9150509250929050565b60008060408385031215610adf57600080fd5b6000610aed858286016109fe565b925050602083013567ffffffffffffffff811115610b0a57600080fd5b610b1685828601610a13565b9150509250929050565b600060208284031215610b3257600080fd5b600082013567ffffffffffffffff811115610b4c57600080fd5b610b5884828501610a13565b91505092915050565b610b6a81610e7f565b82525050565b610b7981610e91565b82525050565b610b8881610e9d565b82525050565b610b9781610e9d565b82525050565b6000610ba882610e63565b610bb28185610e6e565b9350610bc2818560208601610ee0565b610bcb81610f13565b840191505092915050565b6000610be3601b83610e6e565b91507f446f63746f7220646f6573206e6f7420686176652061636365737300000000006000830152602082019050919050565b6000610c23603883610e6e565b91507f43616c6c657220646f6573206e6f742068617665207065726d697373696f6e2060008301527f746f20616363657373206d65646963616c20666f6c64657200000000000000006020830152604082019050919050565b6000610c89601f83610e6e565b91507f43616c6c6572206973206e6f7420616e20616c6c6f77656420646f63746f72006000830152602082019050919050565b606082016000820151610cd26000850182610b61565b506020820151610ce56020850182610b7f565b506040820151610cf86040850182610cfe565b50505050565b610d0781610ec7565b82525050565b610d1681610ec7565b82525050565b6000602082019050610d316000830184610b70565b92915050565b6000602082019050610d4c6000830184610b8e565b92915050565b60006020820190508181036000830152610d6c8184610b9d565b905092915050565b60006020820190508181036000830152610d8d81610bd6565b9050919050565b60006020820190508181036000830152610dad81610c16565b9050919050565b60006020820190508181036000830152610dcd81610c7c565b9050919050565b6000606082019050610de96000830184610cbc565b92915050565b6000602082019050610e046000830184610d0d565b92915050565b6000604051905081810181811067ffffffffffffffff82111715610e2d57600080fd5b8060405250919050565b600067ffffffffffffffff821115610e4e57600080fd5b601f19601f8301169050602081019050919050565b600081519050919050565b600082825260208201905092915050565b6000610e8a82610ea7565b9050919050565b60008115159050919050565b6000819050919050565b600073ffffffffffffffffffffffffffffffffffffffff82169050919050565b6000819050919050565b82818337600083830152505050565b60005b83811015610efe578082015181840152602081019050610ee3565b83811115610f0d576000848401525b50505050565b6000601f19601f8301169050919050565b610f2d81610e7f565b8114610f3857600080fd5b5056fea365627a7a72315820df43e8192823741842d262dfce742b32b88d276f493ade9fd87242666b0d5a626c6578706572696d656e74616cf564736f6c63430005100040",
  "source": "pragma solidity >=0.4.22 <0.9.0;\npragma experimental ABIEncoderV2;\n\ncontract MedicalFolder {\n    \n    event MedFolderAdded(bytes32 medHash);\n\n    struct MedFolder{\n        address patient;\n        bytes32 medHash;\n        uint256 modifDate;\n    }\n\n    MedFolder[] private medFolders;\n\n    mapping (address => mapping(address => bool)) public allowedAccess;\n    mapping (address=> uint) public ownerToMedFolder;\n    mapping (address => uint) ownerMedFolderCount;\n\n    modifier onlyAllowedDoctor(address _patient) {\n        require(allowedAccess[_patient][msg.sender], \"Caller is not an allowed doctor\");\n        _;\n    }\n\n    function addMedFolder(string memory _hash) public{\n        require(ownerMedFolderCount[msg.sender] == 0);\n        bytes32 hsh = keccak256(abi.encode(_hash));\n        medFolders.push(MedFolder(msg.sender, hsh, block.timestamp));\n        uint id = medFolders.length - 1;\n        ownerToMedFolder[msg.sender] = id;\n        ownerMedFolderCount[msg.sender]++;\n        emit MedFolderAdded(hsh);\n    }\n    \n    function modifyMedFolder(address _patient, string memory _newHash) public onlyAllowedDoctor(_patient){\n        bytes32 newHash = keccak256(abi.encode(_newHash));\n\n        medFolders.push(MedFolder(_patient, newHash, block.timestamp));\n        uint newIndex = medFolders.length - 1;\n\n        ownerToMedFolder[_patient] = newIndex;\n        ownerMedFolderCount[_patient]++;\n        emit MedFolderAdded(newHash);\n    }\n\n    function setAllowedAccess(address patient, address doctor, bool access) private {\n        allowedAccess[patient][doctor] = access;\n    }\n\n    function giveAccess(address _doctor) public {\n        setAllowedAccess(msg.sender, _doctor, true);\n    }\n\n    function removeAccess(address _doctor) public {\n        require(allowedAccess[msg.sender][_doctor], \"Doctor does not have access\");\n        setAllowedAccess(msg.sender, _doctor, false);\n    }\n\n    function getMedFolder(address _patient) public view returns(MedFolder memory){\n        require(msg.sender == _patient || allowedAccess[_patient][msg.sender], \"Caller does not have permission to access medical folder\");\n        return medFolders[ownerToMedFolder[_patient]];\n    }\n\n}",
  "sourcePath": "C:\\Users\\salah\\Downloads\\projectpi-cabinet-web\\projectpi-cabinet-web\\backend\\contracts\\medical_folder.sol",
  "compiler": {
    "name": "solc",
    "version": "0.5.16+commit.9c3226ce.Emscripten.clang"
  },
  "schemaVersion": "3.4.16",
  "updatedAt": "2025-10-31T20:34:19.589Z",
  "networkType": "ethereum",
  "devdoc": {
    "methods": {}
  },
  "userdoc": {
    "methods": {}
  }
}