{
  "contractName": "MedNftCreation",
  "abi": [
    {
      "anonymous": false,
      "inputs": [
        {
          "indexed": false,
          "internalType": "uint256",
          "name": "id",
          "type": "uint256"
        },
        {
          "indexed": false,
          "internalType": "string",
          "name": "medNftId",
          "type": "string"
        },
        {
          "indexed": false,
          "internalType": "uint32[]",
          "name": "prompt",
          "type": "uint32[]"
        }
      ],
      "name": "NewMedNFT",
      "type": "event"
    },
    {
      "constant": true,
      "inputs": [
        {
          "internalType": "uint256",
          "name": "",
          "type": "uint256"
        }
      ],
      "name": "medNftToOwner",
      "outputs": [
        {
          "internalType": "address",
          "name": "",
          "type": "address"
        }
      ],
      "payable": false,
      "stateMutability": "view",
      "type": "function"
    },
    {
      "constant": true,
      "inputs": [
        {
          "internalType": "uint256",
          "name": "",
          "type": "uint256"
        }
      ],
      "name": "medNfts",
      "outputs": [
        {
          "internalType": "string",
          "name": "MedNftId",
          "type": "string"
        },
        {
          "internalType": "uint32",
          "name": "level",
          "type": "uint32"
        },
        {
          "internalType": "uint32",
          "name": "readyTime",
          "type": "uint32"
        },
        {
          "internalType": "uint16",
          "name": "winCount",
          "type": "uint16"
        },
        {
          "internalType": "uint16",
          "name": "lossCount",
          "type": "uint16"
        }
      ],
      "payable": false,
      "stateMutability": "view",
      "type": "function"
    },
    {
      "constant": false,
      "inputs": [
        {
          "internalType": "string",
          "name": "_id",
          "type": "string"
        },
        {
          "internalType": "uint32[]",
          "name": "_prompt",
          "type": "uint32[]"
        }
      ],
      "name": "createMedNft",
      "outputs": [],
      "payable": false,
      "stateMutability": "nonpayable",
      "type": "function"
    },
    {
      "constant": true,
      "inputs": [
        {
          "internalType": "address",
          "name": "_address",
          "type": "address"
        }
      ],
      "name": "getMedNft",
      "outputs": [
        {
          "internalType": "string[]",
          "name": "",
          "type": "string[]"
        },
        {
          "internalType": "uint32[][]",
          "name": "",
          "type": "uint32[][]"
        },
        {
          "internalType": "uint32[]",
          "name": "",
          "type": "uint32[]"
        },
        {
          "internalType": "uint32[]",
          "name": "",
          "type": "uint32[]"
        },
        {
          "internalType": "uint16[]",
          "name": "",
          "type": "uint16[]"
        },
        {
          "internalType": "uint16[]",
          "name": "",
          "type": "uint16[]"
        }
      ],
      "payable": false,
      "stateMutability": "view",
      "type": "function"
    }
  ],
  "bytecode": "0x60806040526201518060005534801561001757600080fd5b506114ea806100276000396000f3fe608060405234801561001057600080fd5b506004361061004c5760003560e01c80630fe0a9ed1461005157806355d8f52414610081578063733ff3211461009d578063d9ee5584146100d1575b600080fd5b61006b60048036036100669190810190610d10565b610106565b604051610078919061109a565b60405180910390f35b61009b60048036036100969190810190610ca4565b610139565b005b6100b760048036036100b29190810190610d10565b6103b8565b6040516100c8959493929190611140565b60405180910390f35b6100eb60048036036100e69190810190610c7b565b6104cf565b6040516100fd969594939291906110b5565b60405180910390f35b60026020528060005260406000206000915054906101000a900473ffffffffffffffffffffffffffffffffffffffff1681565b6000600360003373ffffffffffffffffffffffffffffffffffffffff1673ffffffffffffffffffffffffffffffffffffffff168152602001908152602001600020541461018557600080fd5b60016040518060c00160405280848152602001838152602001600163ffffffff168152602001600054420163ffffffff168152602001600061ffff168152602001600061ffff168152509080600181540180825580915050906001820390600052602060002090600302016000909192909190915060008201518160000190805190602001906102169291906109dd565b506020820151816001019080519060200190610233929190610a5d565b5060408201518160020160006101000a81548163ffffffff021916908363ffffffff16021790555060608201518160020160046101000a81548163ffffffff021916908363ffffffff16021790555060808201518160020160086101000a81548161ffff021916908361ffff16021790555060a082015181600201600a6101000a81548161ffff021916908361ffff160217905550505050600060018080549050039050336002600083815260200190815260200160002060006101000a81548173ffffffffffffffffffffffffffffffffffffffff021916908373ffffffffffffffffffffffffffffffffffffffff160217905550600360003373ffffffffffffffffffffffffffffffffffffffff1673ffffffffffffffffffffffffffffffffffffffff168152602001908152602001600020600081548092919060010191905055507f419731b9dacf45ed1cfe5fcd5358d08634d41de8229d84d3b3e6b31b9a7e36418184846040516103ab9392919061119a565b60405180910390a1505050565b600181815481106103c557fe5b9060005260206000209060030201600091509050806000018054600181600116156101000203166002900480601f0160208091040260200160405190810160405280929190818152602001828054600181600116156101000203166002900480156104715780601f1061044657610100808354040283529160200191610471565b820191906000526020600020905b81548152906001019060200180831161045457829003601f168201915b5050505050908060020160009054906101000a900463ffffffff16908060020160049054906101000a900463ffffffff16908060020160089054906101000a900461ffff169080600201600a9054906101000a900461ffff16905085565b6060806060806060806000600360008973ffffffffffffffffffffffffffffffffffffffff1673ffffffffffffffffffffffffffffffffffffffff16815260200190815260200160002054905060608160405190808252806020026020018201604052801561055257816020015b606081526020019060019003908161053d5790505b50905060608260405190808252806020026020018201604052801561058b57816020015b60608152602001906001900390816105765790505b5090506060836040519080825280602002602001820160405280156105bf5781602001602082028038833980820191505090505b5090506060846040519080825280602002602001820160405280156105f35781602001602082028038833980820191505090505b5090506060856040519080825280602002602001820160405280156106275781602001602082028038833980820191505090505b50905060608660405190808252806020026020018201604052801561065b5781602001602082028038833980820191505090505b509050600080905060008090505b6001805490508110156109b9578f73ffffffffffffffffffffffffffffffffffffffff166002600083815260200190815260200160002060009054906101000a900473ffffffffffffffffffffffffffffffffffffffff1673ffffffffffffffffffffffffffffffffffffffff1614156109ac57600181815481106106ea57fe5b90600052602060002090600302016000018054600181600116156101000203166002900480601f01602080910402602001604051908101604052809291908181526020018280546001816001161561010002031660029004801561078f5780601f106107645761010080835404028352916020019161078f565b820191906000526020600020905b81548152906001019060200180831161077257829003601f168201915b50505050508883815181106107a057fe5b6020026020010181905250600181815481106107b857fe5b906000526020600020906003020160010180548060200260200160405190810160405280929190818152602001828054801561083f57602002820191906000526020600020906000905b82829054906101000a900463ffffffff1663ffffffff16815260200190600401906020826003010492830192600103820291508084116108025790505b505050505087838151811061085057fe5b60200260200101819052506001818154811061086857fe5b906000526020600020906003020160020160009054906101000a900463ffffffff1686838151811061089657fe5b602002602001019063ffffffff16908163ffffffff1681525050600181815481106108bd57fe5b906000526020600020906003020160020160049054906101000a900463ffffffff168583815181106108eb57fe5b602002602001019063ffffffff16908163ffffffff16815250506001818154811061091257fe5b906000526020600020906003020160020160089054906101000a900461ffff1684838151811061093e57fe5b602002602001019061ffff16908161ffff16815250506001818154811061096157fe5b9060005260206000209060030201600201600a9054906101000a900461ffff1683838151811061098d57fe5b602002602001019061ffff16908161ffff168152505081806001019250505b8080600101915050610669565b508686868686869d509d509d509d509d509d50505050505050505091939550919395565b828054600181600116156101000203166002900490600052602060002090601f016020900481019282601f10610a1e57805160ff1916838001178555610a4c565b82800160010185558215610a4c579182015b82811115610a4b578251825591602001919060010190610a30565b5b509050610a599190610b0d565b5090565b82805482825590600052602060002090600701600890048101928215610afc5791602002820160005b83821115610aca57835183826101000a81548163ffffffff021916908363ffffffff1602179055509260200192600401602081600301049283019260010302610a86565b8015610afa5782816101000a81549063ffffffff0219169055600401602081600301049283019260010302610aca565b505b509050610b099190610b32565b5090565b610b2f91905b80821115610b2b576000816000905550600101610b13565b5090565b90565b610b6291905b80821115610b5e57600081816101000a81549063ffffffff021916905550600101610b38565b5090565b90565b600081359050610b7481611462565b92915050565b600082601f830112610b8b57600080fd5b8135610b9e610b998261120c565b6111df565b91508181835260208401935060208101905083856020840282011115610bc357600080fd5b60005b83811015610bf35781610bd98882610c66565b845260208401935060208301925050600181019050610bc6565b5050505092915050565b600082601f830112610c0e57600080fd5b8135610c21610c1c82611234565b6111df565b91508082526020830160208301858383011115610c3d57600080fd5b610c4883828461140f565b50505092915050565b600081359050610c6081611479565b92915050565b600081359050610c7581611490565b92915050565b600060208284031215610c8d57600080fd5b6000610c9b84828501610b65565b91505092915050565b60008060408385031215610cb757600080fd5b600083013567ffffffffffffffff811115610cd157600080fd5b610cdd85828601610bfd565b925050602083013567ffffffffffffffff811115610cfa57600080fd5b610d0685828601610b7a565b9150509250929050565b600060208284031215610d2257600080fd5b6000610d3084828501610c51565b91505092915050565b6000610d458383610f46565b905092915050565b6000610d598383610fdd565b905092915050565b6000610d6d838361104f565b60208301905092915050565b6000610d85838361107c565b60208301905092915050565b610d9a816113b5565b82525050565b6000610dab826112b0565b610db5818561133e565b935083602082028501610dc785611260565b8060005b85811015610e035784840389528151610de48582610d39565b9450610def836112fd565b925060208a01995050600181019050610dcb565b50829750879550505050505092915050565b6000610e20826112bb565b610e2a818561134f565b935083602082028501610e3c85611270565b8060005b85811015610e785784840389528151610e598582610d4d565b9450610e648361130a565b925060208a01995050600181019050610e40565b50829750879550505050505092915050565b6000610e95826112c6565b610e9f8185611360565b9350610eaa83611280565b8060005b83811015610edb578151610ec28882610d61565b9750610ecd83611317565b925050600181019050610eae565b5085935050505092915050565b6000610ef3826112dc565b610efd8185611382565b9350610f08836112a0565b8060005b83811015610f39578151610f208882610d79565b9750610f2b83611331565b925050600181019050610f0c565b5085935050505092915050565b6000610f51826112d1565b610f5b8185611371565b9350610f6683611290565b8060005b83811015610f97578151610f7e8882610d79565b9750610f8983611324565b925050600181019050610f6a565b5085935050505092915050565b6000610faf826112f2565b610fb981856113a4565b9350610fc981856020860161141e565b610fd281611451565b840191505092915050565b6000610fe8826112e7565b610ff28185611393565b935061100281856020860161141e565b61100b81611451565b840191505092915050565b6000611021826112e7565b61102b81856113a4565b935061103b81856020860161141e565b61104481611451565b840191505092915050565b611058816113c7565b82525050565b611067816113c7565b82525050565b611076816113f5565b82525050565b611085816113ff565b82525050565b611094816113ff565b82525050565b60006020820190506110af6000830184610d91565b92915050565b600060c08201905081810360008301526110cf8189610e15565b905081810360208301526110e38188610da0565b905081810360408301526110f78187610ee8565b9050818103606083015261110b8186610ee8565b9050818103608083015261111f8185610e8a565b905081810360a08301526111338184610e8a565b9050979650505050505050565b600060a082019050818103600083015261115a8188611016565b9050611169602083018761108b565b611176604083018661108b565b611183606083018561105e565b611190608083018461105e565b9695505050505050565b60006060820190506111af600083018661106d565b81810360208301526111c18185610fa4565b905081810360408301526111d58184610ee8565b9050949350505050565b6000604051905081810181811067ffffffffffffffff8211171561120257600080fd5b8060405250919050565b600067ffffffffffffffff82111561122357600080fd5b602082029050602081019050919050565b600067ffffffffffffffff82111561124b57600080fd5b601f19601f8301169050602081019050919050565b6000819050602082019050919050565b6000819050602082019050919050565b6000819050602082019050919050565b6000819050602082019050919050565b6000819050602082019050919050565b600081519050919050565b600081519050919050565b600081519050919050565b600081519050919050565b600081519050919050565b600081519050919050565b600081519050919050565b6000602082019050919050565b6000602082019050919050565b6000602082019050919050565b6000602082019050919050565b6000602082019050919050565b600082825260208201905092915050565b600082825260208201905092915050565b600082825260208201905092915050565b600082825260208201905092915050565b600082825260208201905092915050565b600082825260208201905092915050565b600082825260208201905092915050565b60006113c0826113d5565b9050919050565b600061ffff82169050919050565b600073ffffffffffffffffffffffffffffffffffffffff82169050919050565b6000819050919050565b600063ffffffff82169050919050565b82818337600083830152505050565b60005b8381101561143c578082015181840152602081019050611421565b8381111561144b576000848401525b50505050565b6000601f19601f8301169050919050565b61146b816113b5565b811461147657600080fd5b50565b611482816113f5565b811461148d57600080fd5b50565b611499816113ff565b81146114a457600080fd5b5056fea365627a7a72315820e96ecf0f5be578d28312d7ae7376ba41efda467900867928ade87d0d8daedb1b6c6578706572696d656e74616cf564736f6c63430005100040",
  "source": "pragma solidity >=0.4.22 <0.9.0;\npragma experimental ABIEncoderV2;\n\ncontract MedNftCreation {\n    \n    event NewMedNFT(uint id, string medNftId, uint32[] prompt);\n\n    uint cooldownTime = 1 days;\n\n    struct MedNft {\n        string MedNftId;\n        uint32[] prompt;\n        uint32 level;\n        uint32 readyTime;\n        uint16 winCount;\n        uint16 lossCount;\n    }\n\n    MedNft[] public medNfts;\n\n    mapping (uint => address) public medNftToOwner;\n    mapping (address => uint) ownerMedNftCount;\n\n    function createMedNft(string memory _id, uint32[] memory _prompt) public {\n        require(ownerMedNftCount[msg.sender] == 0);\n        medNfts.push(MedNft(_id, _prompt, 1,uint32(block.timestamp + cooldownTime), 0, 0));\n        uint id = medNfts.length - 1;\n        medNftToOwner[id] = msg.sender;\n        ownerMedNftCount[msg.sender]++; \n        emit NewMedNFT(id, _id, _prompt);\n    }\n\n    function getMedNft(address _address) public view returns (string[] memory, uint32[][] memory, uint32[] memory, uint32[] memory, uint16[] memory, uint16[] memory){\n        uint256 ownerCount = ownerMedNftCount[_address];\n        string[] memory medNftIds = new string[](ownerCount);\n        uint32[][] memory prompts = new uint32[][](ownerCount);\n        uint32[] memory levels = new uint32[](ownerCount);\n        uint32[] memory readyTimes = new uint32[](ownerCount);\n        uint16[] memory winCounts = new uint16[](ownerCount);\n        uint16[] memory lossCounts = new uint16[](ownerCount);\n    \n        uint256 counter = 0;\n        for (uint256 i = 0; i < medNfts.length; i++) {\n            if (medNftToOwner[i] == _address) {\n                medNftIds[counter] = medNfts[i].MedNftId;\n                prompts[counter] = medNfts[i].prompt;\n                levels[counter] = medNfts[i].level;\n                readyTimes[counter] = medNfts[i].readyTime;\n                winCounts[counter] = medNfts[i].winCount;\n                lossCounts[counter] = medNfts[i].lossCount;\n                counter++;\n            }\n        }\n\n    return (medNftIds, prompts, levels, readyTimes, winCounts, lossCounts);\n    }\n}\n\n",
  "sourcePath": "C:\\Users\\salah\\Downloads\\projectpi-cabinet-web\\projectpi-cabinet-web\\backend\\contracts\\mednft_creation.sol",
  "compiler": {
    "name": "solc",
    "version": "0.5.16+commit.9c3226ce.Emscripten.clang"
  },
  "schemaVersion": "3.4.16",
  "updatedAt": "2025-10-31T20:34:19.403Z",
  "networkType": "ethereum",
  "devdoc": {
    "methods": {}
  },
  "userdoc": {
    "methods": {}
  }
}